:100000000C9434000C943E000C943E000C943E0082
:100010000C943E000C943E000C943E000C943E0068
:100020000C943E000C943E000C943E000C943E0058
:100030000C943E000C943E000C943E000C943E0048
:100040000C943E000C943E000C943E000C943E0038
:100050000C943E000C943E000C943E000C943E0028
:100060000C943E000C943E0011241FBECFEFD8E04C
:10007000DEBFCDBF0E9458000C9462000C940000BB
:10008000AC01909181009D60909381008FE0849FEE
:100090009001859F300D11243093890020938800B2
:1000A0001092850010928400B19AB19BFECF089502
:1000B000259AC0E285B18C2785B984EF91E00E9432
:0800C0004000F8CFF894FFCFD7
:00000001FF
